{
  "contractName": "TitusToken",
  "abi": [
    {
      "inputs": [],
      "stateMutability": "nonpayable",
      "type": "constructor"
    },
    {
      "anonymous": false,
      "inputs": [
        {
          "indexed": false,
          "internalType": "address",
          "name": "_receiveWallet",
          "type": "address"
        },
        {
          "indexed": false,
          "internalType": "uint256",
          "name": "amount",
          "type": "uint256"
        }
      ],
      "name": "AirDrop",
      "type": "event"
    },
    {
      "anonymous": false,
      "inputs": [
        {
          "indexed": true,
          "internalType": "address",
          "name": "owner",
          "type": "address"
        },
        {
          "indexed": true,
          "internalType": "address",
          "name": "spender",
          "type": "address"
        },
        {
          "indexed": false,
          "internalType": "uint256",
          "name": "value",
          "type": "uint256"
        }
      ],
      "name": "Approval",
      "type": "event"
    },
    {
      "anonymous": false,
      "inputs": [
        {
          "indexed": true,
          "internalType": "address",
          "name": "previousOwner",
          "type": "address"
        },
        {
          "indexed": true,
          "internalType": "address",
          "name": "newOwner",
          "type": "address"
        }
      ],
      "name": "OwnershipTransferred",
      "type": "event"
    },
    {
      "anonymous": false,
      "inputs": [
        {
          "indexed": true,
          "internalType": "bytes32",
          "name": "role",
          "type": "bytes32"
        },
        {
          "indexed": true,
          "internalType": "bytes32",
          "name": "previousAdminRole",
          "type": "bytes32"
        },
        {
          "indexed": true,
          "internalType": "bytes32",
          "name": "newAdminRole",
          "type": "bytes32"
        }
      ],
      "name": "RoleAdminChanged",
      "type": "event"
    },
    {
      "anonymous": false,
      "inputs": [
        {
          "indexed": true,
          "internalType": "bytes32",
          "name": "role",
          "type": "bytes32"
        },
        {
          "indexed": true,
          "internalType": "address",
          "name": "account",
          "type": "address"
        },
        {
          "indexed": true,
          "internalType": "address",
          "name": "sender",
          "type": "address"
        }
      ],
      "name": "RoleGranted",
      "type": "event"
    },
    {
      "anonymous": false,
      "inputs": [
        {
          "indexed": true,
          "internalType": "bytes32",
          "name": "role",
          "type": "bytes32"
        },
        {
          "indexed": true,
          "internalType": "address",
          "name": "account",
          "type": "address"
        },
        {
          "indexed": true,
          "internalType": "address",
          "name": "sender",
          "type": "address"
        }
      ],
      "name": "RoleRevoked",
      "type": "event"
    },
    {
      "anonymous": false,
      "inputs": [
        {
          "indexed": false,
          "internalType": "address",
          "name": "from",
          "type": "address"
        },
        {
          "indexed": false,
          "internalType": "address",
          "name": "to",
          "type": "address"
        },
        {
          "indexed": false,
          "internalType": "uint256",
          "name": "amount",
          "type": "uint256"
        }
      ],
      "name": "SendToken",
      "type": "event"
    },
    {
      "anonymous": false,
      "inputs": [
        {
          "indexed": true,
          "internalType": "address",
          "name": "from",
          "type": "address"
        },
        {
          "indexed": true,
          "internalType": "address",
          "name": "to",
          "type": "address"
        },
        {
          "indexed": false,
          "internalType": "uint256",
          "name": "value",
          "type": "uint256"
        }
      ],
      "name": "Transfer",
      "type": "event"
    },
    {
      "inputs": [],
      "name": "BURNER_ROLE",
      "outputs": [
        {
          "internalType": "bytes32",
          "name": "",
          "type": "bytes32"
        }
      ],
      "stateMutability": "view",
      "type": "function",
      "constant": true
    },
    {
      "inputs": [],
      "name": "DEFAULT_ADMIN_ROLE",
      "outputs": [
        {
          "internalType": "bytes32",
          "name": "",
          "type": "bytes32"
        }
      ],
      "stateMutability": "view",
      "type": "function",
      "constant": true
    },
    {
      "inputs": [],
      "name": "INITIAL_SUPPLY",
      "outputs": [
        {
          "internalType": "uint256",
          "name": "",
          "type": "uint256"
        }
      ],
      "stateMutability": "view",
      "type": "function",
      "constant": true
    },
    {
      "inputs": [],
      "name": "MINTER_ROLE",
      "outputs": [
        {
          "internalType": "bytes32",
          "name": "",
          "type": "bytes32"
        }
      ],
      "stateMutability": "view",
      "type": "function",
      "constant": true
    },
    {
      "inputs": [],
      "name": "_decimals",
      "outputs": [
        {
          "internalType": "uint8",
          "name": "",
          "type": "uint8"
        }
      ],
      "stateMutability": "view",
      "type": "function",
      "constant": true
    },
    {
      "inputs": [],
      "name": "_symbol",
      "outputs": [
        {
          "internalType": "string",
          "name": "",
          "type": "string"
        }
      ],
      "stateMutability": "view",
      "type": "function",
      "constant": true
    },
    {
      "inputs": [],
      "name": "_token",
      "outputs": [
        {
          "internalType": "string",
          "name": "",
          "type": "string"
        }
      ],
      "stateMutability": "view",
      "type": "function",
      "constant": true
    },
    {
      "inputs": [
        {
          "internalType": "address",
          "name": "",
          "type": "address"
        }
      ],
      "name": "airDropHistory",
      "outputs": [
        {
          "internalType": "uint256",
          "name": "",
          "type": "uint256"
        }
      ],
      "stateMutability": "view",
      "type": "function",
      "constant": true
    },
    {
      "inputs": [
        {
          "internalType": "address",
          "name": "owner",
          "type": "address"
        },
        {
          "internalType": "address",
          "name": "spender",
          "type": "address"
        }
      ],
      "name": "allowance",
      "outputs": [
        {
          "internalType": "uint256",
          "name": "",
          "type": "uint256"
        }
      ],
      "stateMutability": "view",
      "type": "function",
      "constant": true
    },
    {
      "inputs": [
        {
          "internalType": "address",
          "name": "spender",
          "type": "address"
        },
        {
          "internalType": "uint256",
          "name": "amount",
          "type": "uint256"
        }
      ],
      "name": "approve",
      "outputs": [
        {
          "internalType": "bool",
          "name": "",
          "type": "bool"
        }
      ],
      "stateMutability": "nonpayable",
      "type": "function"
    },
    {
      "inputs": [
        {
          "internalType": "address",
          "name": "account",
          "type": "address"
        }
      ],
      "name": "balanceOf",
      "outputs": [
        {
          "internalType": "uint256",
          "name": "",
          "type": "uint256"
        }
      ],
      "stateMutability": "view",
      "type": "function",
      "constant": true
    },
    {
      "inputs": [
        {
          "internalType": "address",
          "name": "",
          "type": "address"
        }
      ],
      "name": "cancelAmount",
      "outputs": [
        {
          "internalType": "uint256",
          "name": "",
          "type": "uint256"
        }
      ],
      "stateMutability": "view",
      "type": "function",
      "constant": true
    },
    {
      "inputs": [],
      "name": "decimals",
      "outputs": [
        {
          "internalType": "uint8",
          "name": "",
          "type": "uint8"
        }
      ],
      "stateMutability": "view",
      "type": "function",
      "constant": true
    },
    {
      "inputs": [
        {
          "internalType": "address",
          "name": "spender",
          "type": "address"
        },
        {
          "internalType": "uint256",
          "name": "subtractedValue",
          "type": "uint256"
        }
      ],
      "name": "decreaseAllowance",
      "outputs": [
        {
          "internalType": "bool",
          "name": "",
          "type": "bool"
        }
      ],
      "stateMutability": "nonpayable",
      "type": "function"
    },
    {
      "inputs": [
        {
          "internalType": "bytes32",
          "name": "role",
          "type": "bytes32"
        }
      ],
      "name": "getRoleAdmin",
      "outputs": [
        {
          "internalType": "bytes32",
          "name": "",
          "type": "bytes32"
        }
      ],
      "stateMutability": "view",
      "type": "function",
      "constant": true
    },
    {
      "inputs": [
        {
          "internalType": "bytes32",
          "name": "role",
          "type": "bytes32"
        },
        {
          "internalType": "address",
          "name": "account",
          "type": "address"
        }
      ],
      "name": "grantRole",
      "outputs": [],
      "stateMutability": "nonpayable",
      "type": "function"
    },
    {
      "inputs": [
        {
          "internalType": "bytes32",
          "name": "role",
          "type": "bytes32"
        },
        {
          "internalType": "address",
          "name": "account",
          "type": "address"
        }
      ],
      "name": "hasRole",
      "outputs": [
        {
          "internalType": "bool",
          "name": "",
          "type": "bool"
        }
      ],
      "stateMutability": "view",
      "type": "function",
      "constant": true
    },
    {
      "inputs": [
        {
          "internalType": "address",
          "name": "spender",
          "type": "address"
        },
        {
          "internalType": "uint256",
          "name": "addedValue",
          "type": "uint256"
        }
      ],
      "name": "increaseAllowance",
      "outputs": [
        {
          "internalType": "bool",
          "name": "",
          "type": "bool"
        }
      ],
      "stateMutability": "nonpayable",
      "type": "function"
    },
    {
      "inputs": [],
      "name": "lockOwner",
      "outputs": [
        {
          "internalType": "address",
          "name": "",
          "type": "address"
        }
      ],
      "stateMutability": "view",
      "type": "function",
      "constant": true
    },
    {
      "inputs": [],
      "name": "lockRegist",
      "outputs": [
        {
          "internalType": "bool",
          "name": "",
          "type": "bool"
        }
      ],
      "stateMutability": "view",
      "type": "function",
      "constant": true
    },
    {
      "inputs": [],
      "name": "name",
      "outputs": [
        {
          "internalType": "string",
          "name": "",
          "type": "string"
        }
      ],
      "stateMutability": "view",
      "type": "function",
      "constant": true
    },
    {
      "inputs": [],
      "name": "owner",
      "outputs": [
        {
          "internalType": "address",
          "name": "",
          "type": "address"
        }
      ],
      "stateMutability": "view",
      "type": "function",
      "constant": true
    },
    {
      "inputs": [],
      "name": "released",
      "outputs": [
        {
          "internalType": "bool",
          "name": "",
          "type": "bool"
        }
      ],
      "stateMutability": "view",
      "type": "function",
      "constant": true
    },
    {
      "inputs": [],
      "name": "renounceOwnership",
      "outputs": [],
      "stateMutability": "nonpayable",
      "type": "function"
    },
    {
      "inputs": [
        {
          "internalType": "bytes32",
          "name": "role",
          "type": "bytes32"
        },
        {
          "internalType": "address",
          "name": "account",
          "type": "address"
        }
      ],
      "name": "renounceRole",
      "outputs": [],
      "stateMutability": "nonpayable",
      "type": "function"
    },
    {
      "inputs": [
        {
          "internalType": "bytes32",
          "name": "role",
          "type": "bytes32"
        },
        {
          "internalType": "address",
          "name": "account",
          "type": "address"
        }
      ],
      "name": "revokeRole",
      "outputs": [],
      "stateMutability": "nonpayable",
      "type": "function"
    },
    {
      "inputs": [
        {
          "internalType": "address",
          "name": "",
          "type": "address"
        }
      ],
      "name": "sendAmount",
      "outputs": [
        {
          "internalType": "uint256",
          "name": "",
          "type": "uint256"
        }
      ],
      "stateMutability": "view",
      "type": "function",
      "constant": true
    },
    {
      "inputs": [
        {
          "internalType": "bytes4",
          "name": "interfaceId",
          "type": "bytes4"
        }
      ],
      "name": "supportsInterface",
      "outputs": [
        {
          "internalType": "bool",
          "name": "",
          "type": "bool"
        }
      ],
      "stateMutability": "view",
      "type": "function",
      "constant": true
    },
    {
      "inputs": [],
      "name": "symbol",
      "outputs": [
        {
          "internalType": "string",
          "name": "",
          "type": "string"
        }
      ],
      "stateMutability": "view",
      "type": "function",
      "constant": true
    },
    {
      "inputs": [],
      "name": "totalSupply",
      "outputs": [
        {
          "internalType": "uint256",
          "name": "",
          "type": "uint256"
        }
      ],
      "stateMutability": "view",
      "type": "function",
      "constant": true
    },
    {
      "inputs": [
        {
          "internalType": "address",
          "name": "recipient",
          "type": "address"
        },
        {
          "internalType": "uint256",
          "name": "amount",
          "type": "uint256"
        }
      ],
      "name": "transfer",
      "outputs": [
        {
          "internalType": "bool",
          "name": "",
          "type": "bool"
        }
      ],
      "stateMutability": "nonpayable",
      "type": "function"
    },
    {
      "inputs": [
        {
          "internalType": "address",
          "name": "sender",
          "type": "address"
        },
        {
          "internalType": "address",
          "name": "recipient",
          "type": "address"
        },
        {
          "internalType": "uint256",
          "name": "amount",
          "type": "uint256"
        }
      ],
      "name": "transferFrom",
      "outputs": [
        {
          "internalType": "bool",
          "name": "",
          "type": "bool"
        }
      ],
      "stateMutability": "nonpayable",
      "type": "function"
    },
    {
      "inputs": [
        {
          "internalType": "address",
          "name": "newOwner",
          "type": "address"
        }
      ],
      "name": "transferOwnership",
      "outputs": [],
      "stateMutability": "nonpayable",
      "type": "function"
    },
    {
      "inputs": [],
      "name": "user_wallet",
      "outputs": [
        {
          "internalType": "address",
          "name": "",
          "type": "address"
        }
      ],
      "stateMutability": "view",
      "type": "function",
      "constant": true
    },
    {
      "inputs": [],
      "name": "tokenName",
      "outputs": [
        {
          "internalType": "string",
          "name": "",
          "type": "string"
        }
      ],
      "stateMutability": "pure",
      "type": "function",
      "constant": true
    },
    {
      "inputs": [],
      "name": "tokenSymbol",
      "outputs": [
        {
          "internalType": "string",
          "name": "",
          "type": "string"
        }
      ],
      "stateMutability": "pure",
      "type": "function",
      "constant": true
    },
    {
      "inputs": [],
      "name": "tokenDecimals",
      "outputs": [
        {
          "internalType": "uint8",
          "name": "",
          "type": "uint8"
        }
      ],
      "stateMutability": "pure",
      "type": "function",
      "constant": true
    },
    {
      "inputs": [
        {
          "internalType": "address",
          "name": "wallet",
          "type": "address"
        }
      ],
      "name": "getBalance",
      "outputs": [
        {
          "internalType": "uint256",
          "name": "",
          "type": "uint256"
        }
      ],
      "stateMutability": "view",
      "type": "function",
      "constant": true
    },
    {
      "inputs": [
        {
          "internalType": "address",
          "name": "_to",
          "type": "address"
        },
        {
          "internalType": "uint256",
          "name": "_amount",
          "type": "uint256"
        }
      ],
      "name": "sendTokens",
      "outputs": [],
      "stateMutability": "nonpayable",
      "type": "function"
    },
    {
      "inputs": [
        {
          "internalType": "address",
          "name": "_to",
          "type": "address"
        },
        {
          "internalType": "uint256",
          "name": "_amount",
          "type": "uint256"
        }
      ],
      "name": "sendToken_admin",
      "outputs": [],
      "stateMutability": "nonpayable",
      "type": "function"
    },
    {
      "inputs": [
        {
          "internalType": "address",
          "name": "to",
          "type": "address"
        },
        {
          "internalType": "uint256",
          "name": "_amount",
          "type": "uint256"
        }
      ],
      "name": "tokenMint",
      "outputs": [],
      "stateMutability": "nonpayable",
      "type": "function"
    },
    {
      "inputs": [
        {
          "internalType": "address",
          "name": "from",
          "type": "address"
        },
        {
          "internalType": "uint256",
          "name": "_amount",
          "type": "uint256"
        }
      ],
      "name": "tokenBurn",
      "outputs": [],
      "stateMutability": "nonpayable",
      "type": "function"
    },
    {
      "inputs": [
        {
          "internalType": "address[]",
          "name": "receivers",
          "type": "address[]"
        },
        {
          "internalType": "uint256[]",
          "name": "values",
          "type": "uint256[]"
        }
      ],
      "name": "tokenAirDrop",
      "outputs": [],
      "stateMutability": "nonpayable",
      "type": "function"
    },
    {
      "inputs": [
        {
          "internalType": "address",
          "name": "_from",
          "type": "address"
        },
        {
          "internalType": "address",
          "name": "_to",
          "type": "address"
        },
        {
          "internalType": "uint256",
          "name": "_amount",
          "type": "uint256"
        }
      ],
      "name": "tokenPause",
      "outputs": [],
      "stateMutability": "nonpayable",
      "type": "function"
    },
    {
      "inputs": [],
      "name": "Total_Lock_Amount",
      "outputs": [
        {
          "internalType": "uint256",
          "name": "",
          "type": "uint256"
        }
      ],
      "stateMutability": "view",
      "type": "function",
      "constant": true
    },
    {
      "inputs": [],
      "name": "Total_holding",
      "outputs": [
        {
          "internalType": "uint256",
          "name": "",
          "type": "uint256"
        }
      ],
      "stateMutability": "view",
      "type": "function",
      "constant": true
    },
    {
      "inputs": [],
      "name": "Total_allowance",
      "outputs": [
        {
          "internalType": "uint256",
          "name": "",
          "type": "uint256"
        }
      ],
      "stateMutability": "view",
      "type": "function",
      "constant": true
    },
    {
      "inputs": [],
      "name": "releaseTokenTransfer",
      "outputs": [],
      "stateMutability": "nonpayable",
      "type": "function"
    },
    {
      "inputs": [
        {
          "internalType": "address",
          "name": "_lockOwner",
          "type": "address"
        }
      ],
      "name": "setReleaser",
      "outputs": [],
      "stateMutability": "nonpayable",
      "type": "function"
    },
    {
      "inputs": [
        {
          "internalType": "uint256",
          "name": "_total",
          "type": "uint256"
        },
        {
          "internalType": "address",
          "name": "_investor",
          "type": "address"
        }
      ],
      "name": "addToLock",
      "outputs": [],
      "stateMutability": "nonpayable",
      "type": "function"
    }
  ],
  "bytecode": "0x608060405233600760006101000a81548173ffffffffffffffffffffffffffffffffffffffff021916908373ffffffffffffffffffffffffffffffffffffffff1602179055506000600760146101000a81548160ff0219169083151502179055506000600760156101000a81548160ff0219169083151502179055503480156200008857600080fd5b506040518060400160405280600a81526020017f5469747573546f6b656e000000000000000000000000000000000000000000008152506040518060400160405280600381526020017f545454000000000000000000000000000000000000000000000000000000000081525081600390805190602001906200010d92919062000907565b5080600490805190602001906200012692919062000907565b505050620001496200013d6200028060201b60201c565b6200028860201b60201c565b600033905033600860006101000a81548173ffffffffffffffffffffffffffffffffffffffff021916908373ffffffffffffffffffffffffffffffffffffffff160217905550620001d281620001a46200034e60201b60201c565b60ff16600a620001b5919062000b90565b6301406f40620001c6919062000ccd565b6200035760201b60201c565b620002047ffdf81848136595c31bb5f76217767372bc4bf906663038eb38381131ea27ecba82620004d060201b60201c565b620002367f04c6a47ae7910ef8b295215a97e8495a9eaf57b7b05bfd8bf951edb3fd4a16a382620004d060201b60201c565b6200024b6000801b33620004d060201b60201c565b426009819055506200026381620004e660201b60201c565b620002796301406f4082620005b960201b60201c565b5062000dd9565b600033905090565b6000600660009054906101000a900473ffffffffffffffffffffffffffffffffffffffff16905081600660006101000a81548173ffffffffffffffffffffffffffffffffffffffff021916908373ffffffffffffffffffffffffffffffffffffffff1602179055508173ffffffffffffffffffffffffffffffffffffffff168173ffffffffffffffffffffffffffffffffffffffff167f8be0079c531659141344cd1fd0a4f28419497f9722a3daafe3b4186f6b6457e060405160405180910390a35050565b60006012905090565b600073ffffffffffffffffffffffffffffffffffffffff168273ffffffffffffffffffffffffffffffffffffffff161415620003ca576040517f08c379a0000000000000000000000000000000000000000000000000000000008152600401620003c19062000a88565b60405180910390fd5b620003de600083836200070e60201b60201c565b8060026000828254620003f2919062000ad8565b92505081905550806000808473ffffffffffffffffffffffffffffffffffffffff1673ffffffffffffffffffffffffffffffffffffffff168152602001908152602001600020600082825462000449919062000ad8565b925050819055508173ffffffffffffffffffffffffffffffffffffffff16600073ffffffffffffffffffffffffffffffffffffffff167fddf252ad1be2c89b69c2b068fc378daa952ba7f163c4a11628f55a4df523b3ef83604051620004b0919062000aaa565b60405180910390a3620004cc600083836200071360201b60201c565b5050565b620004e282826200071860201b60201c565b5050565b620004f66200028060201b60201c565b73ffffffffffffffffffffffffffffffffffffffff166200051c6200080a60201b60201c565b73ffffffffffffffffffffffffffffffffffffffff161462000575576040517f08c379a00000000000000000000000000000000000000000000000000000000081526004016200056c9062000a66565b60405180910390fd5b80600860006101000a81548173ffffffffffffffffffffffffffffffffffffffff021916908373ffffffffffffffffffffffffffffffffffffffff16021790555050565b620005c96200028060201b60201c565b73ffffffffffffffffffffffffffffffffffffffff16620005ef6200080a60201b60201c565b73ffffffffffffffffffffffffffffffffffffffff161462000648576040517f08c379a00000000000000000000000000000000000000000000000000000000081526004016200063f9062000a66565b60405180910390fd5b600760159054906101000a900460ff16620006f7576200066762000998565b82816000018181525050620f424081602001818152505080600a60008473ffffffffffffffffffffffffffffffffffffffff1673ffffffffffffffffffffffffffffffffffffffff16815260200190815260200160002060008201518160000155602082015181600101559050506001600760156101000a81548160ff021916908315150217905550506200070a565b62000708826200083460201b60201c565b505b5050565b505050565b505050565b6200072a82826200089c60201b60201c565b620008065760016005600084815260200190815260200160002060000160008373ffffffffffffffffffffffffffffffffffffffff1673ffffffffffffffffffffffffffffffffffffffff16815260200190815260200160002060006101000a81548160ff021916908315150217905550620007ab6200028060201b60201c565b73ffffffffffffffffffffffffffffffffffffffff168173ffffffffffffffffffffffffffffffffffffffff16837f2f8788117e7eff1d82e926ec794901d17c78024a50270940304540a733656f0d60405160405180910390a45b5050565b6000600660009054906101000a900473ffffffffffffffffffffffffffffffffffffffff16905090565b600080600a60003373ffffffffffffffffffffffffffffffffffffffff1673ffffffffffffffffffffffffffffffffffffffff16815260200190815260200160002090508281600001546200088a919062000ad8565b81600001819055506001915050919050565b60006005600084815260200190815260200160002060000160008373ffffffffffffffffffffffffffffffffffffffff1673ffffffffffffffffffffffffffffffffffffffff16815260200190815260200160002060009054906101000a900460ff16905092915050565b828054620009159062000d38565b90600052602060002090601f01602090048101928262000939576000855562000985565b82601f106200095457805160ff191683800117855562000985565b8280016001018555821562000985579182015b828111156200098457825182559160200191906001019062000967565b5b509050620009949190620009b2565b5090565b604051806040016040528060008152602001600081525090565b5b80821115620009cd576000816000905550600101620009b3565b5090565b6000620009e060208362000ac7565b91507f4f776e61626c653a2063616c6c6572206973206e6f7420746865206f776e65726000830152602082019050919050565b600062000a22601f8362000ac7565b91507f45524332303a206d696e7420746f20746865207a65726f2061646472657373006000830152602082019050919050565b62000a608162000d2e565b82525050565b6000602082019050818103600083015262000a8181620009d1565b9050919050565b6000602082019050818103600083015262000aa38162000a13565b9050919050565b600060208201905062000ac1600083018462000a55565b92915050565b600082825260208201905092915050565b600062000ae58262000d2e565b915062000af28362000d2e565b9250827fffffffffffffffffffffffffffffffffffffffffffffffffffffffffffffffff0382111562000b2a5762000b2962000d6e565b5b828201905092915050565b6000808291508390505b600185111562000b875780860481111562000b5f5762000b5e62000d6e565b5b600185161562000b6f5780820291505b808102905062000b7f8562000dcc565b945062000b3f565b94509492505050565b600062000b9d8262000d2e565b915062000baa8362000d2e565b925062000bd97fffffffffffffffffffffffffffffffffffffffffffffffffffffffffffffffff848462000be1565b905092915050565b60008262000bf3576001905062000cc6565b8162000c03576000905062000cc6565b816001811462000c1c576002811462000c275762000c5d565b600191505062000cc6565b60ff84111562000c3c5762000c3b62000d6e565b5b8360020a91508482111562000c565762000c5562000d6e565b5b5062000cc6565b5060208310610133831016604e8410600b841016171562000c975782820a90508381111562000c915762000c9062000d6e565b5b62000cc6565b62000ca6848484600162000b35565b9250905081840481111562000cc05762000cbf62000d6e565b5b81810290505b9392505050565b600062000cda8262000d2e565b915062000ce78362000d2e565b9250817fffffffffffffffffffffffffffffffffffffffffffffffffffffffffffffffff048311821515161562000d235762000d2262000d6e565b5b828202905092915050565b6000819050919050565b6000600282049050600182168062000d5157607f821691505b6020821081141562000d685762000d6762000d9d565b5b50919050565b7f4e487b7100000000000000000000000000000000000000000000000000000000600052601160045260246000fd5b7f4e487b7100000000000000000000000000000000000000000000000000000000600052602260045260246000fd5b60008160011c9050919050565b6143cf8062000de96000396000f3fe608060405234801561001057600080fd5b50600436106102d65760003560e01c8063715018a611610182578063bc836558116100e9578063eae5504e116100a2578063f2fde38b1161007c578063f2fde38b146108ef578063f59fce5b1461090b578063f88d7f3114610927578063f8b2cb4f14610943576102d6565b8063eae5504e14610899578063ecd0c0c3146108b5578063eef892aa146108d3576102d6565b8063bc836558146107c3578063c0efbd2a146107e1578063ccd28a4c146107ff578063d53913931461082f578063d547741f1461084d578063dd62ed3e14610869576102d6565b8063961325211161013b57806396132521146106eb578063a217fddf14610709578063a457c2d714610727578063a9059cbb14610757578063b09f126614610787578063bbf6759d146107a5576102d6565b8063715018a61461063b578063740b611f146106455780637b61c320146106615780638da5cb5b1461067f57806391d148541461069d57806395d89b41146106cd576102d6565b80632ff2e9dc116102415780633b97e856116101fa5780635f412d4f116101d45780635f412d4f146105c557806369cd61be146105cf5780636c02a931146105ed57806370a082311461060b576102d6565b80633b97e8561461056b57806350c11173146105895780635236b7b4146105a7576102d6565b80632ff2e9dc14610495578063313ce567146104b357806332424aa3146104d157806332d2f491146104ef57806336568abe1461051f578063395093511461053b576102d6565b8063210cb8c311610293578063210cb8c3146103af57806323b872dd146103df578063248a9ca31461040f578063282c51f31461043f5780632f2ff15d1461045d5780632fc2f90714610479576102d6565b806301ffc9a7146102db57806305ab421d1461030b57806306fdde0314610327578063095ea7b3146103455780631682af111461037557806318160ddd14610391575b600080fd5b6102f560048036038101906102f09190613529565b610973565b6040516103029190613d1a565b60405180910390f35b6103256004803603810190610320919061341c565b6109ed565b005b61032f610b99565b60405161033c9190613d50565b60405180910390f35b61035f600480360381019061035a919061341c565b610c2b565b60405161036c9190613d1a565b60405180910390f35b61038f600480360381019061038a91906133cd565b610c49565b005b610399610caf565b6040516103a69190613f72565b60405180910390f35b6103c960048036038101906103c49190613368565b610cb9565b6040516103d69190613f72565b60405180910390f35b6103f960048036038101906103f491906133cd565b610cd1565b6040516104069190613d1a565b60405180910390f35b610429600480360381019061042491906134c4565b610dc9565b6040516104369190613d35565b60405180910390f35b610447610de9565b6040516104549190613d35565b60405180910390f35b610477600480360381019061047291906134ed565b610e0d565b005b610493600480360381019061048e9190613368565b610e36565b005b61049d610ef6565b6040516104aa9190613f72565b60405180910390f35b6104bb610efe565b6040516104c89190613f8d565b60405180910390f35b6104d9610f07565b6040516104e69190613f8d565b60405180910390f35b61050960048036038101906105049190613368565b610f0c565b6040516105169190613f72565b60405180910390f35b610539600480360381019061053491906134ed565b610f24565b005b6105556004803603810190610550919061341c565b610fa7565b6040516105629190613d1a565b60405180910390f35b610573611053565b6040516105809190613f8d565b60405180910390f35b61059161105c565b60405161059e9190613d1a565b60405180910390f35b6105af61106f565b6040516105bc9190613f72565b60405180910390f35b6105cd6110ff565b005b6105d7611198565b6040516105e49190613c9f565b60405180910390f35b6105f56111be565b6040516106029190613d50565b60405180910390f35b61062560048036038101906106209190613368565b6111fb565b6040516106329190613f72565b60405180910390f35b610643611243565b005b61065f600480360381019061065a9190613458565b6112cb565b005b610669611526565b6040516106769190613d50565b60405180910390f35b610687611563565b6040516106949190613c9f565b60405180910390f35b6106b760048036038101906106b291906134ed565b61158d565b6040516106c49190613d1a565b60405180910390f35b6106d56115f8565b6040516106e29190613d50565b60405180910390f35b6106f361168a565b6040516107009190613d1a565b60405180910390f35b61071161169d565b60405161071e9190613d35565b60405180910390f35b610741600480360381019061073c919061341c565b6116a4565b60405161074e9190613d1a565b60405180910390f35b610771600480360381019061076c919061341c565b61178f565b60405161077e9190613d1a565b60405180910390f35b61078f6117ad565b60405161079c9190613d50565b60405180910390f35b6107ad6117e6565b6040516107ba9190613f72565b60405180910390f35b6107cb611885565b6040516107d89190613f72565b60405180910390f35b6107e9611915565b6040516107f69190613c9f565b60405180910390f35b61081960048036038101906108149190613368565b61193b565b6040516108269190613f72565b60405180910390f35b610837611953565b6040516108449190613d35565b60405180910390f35b610867600480360381019061086291906134ed565b611977565b005b610883600480360381019061087e9190613391565b6119a0565b6040516108909190613f72565b60405180910390f35b6108b360048036038101906108ae9190613552565b611a27565b005b6108bd611b5d565b6040516108ca9190613d50565b60405180910390f35b6108ed60048036038101906108e8919061341c565b611b96565b005b61090960048036038101906109049190613368565b611bd7565b005b6109256004803603810190610920919061341c565b611ccf565b005b610941600480360381019061093c919061341c565b611fdb565b005b61095d60048036038101906109589190613368565b61201c565b60405161096a9190613f72565b60405180910390f35b60007f7965db0b000000000000000000000000000000000000000000000000000000007bffffffffffffffffffffffffffffffffffffffffffffffffffffffff1916827bffffffffffffffffffffffffffffffffffffffffffffffffffffffff191614806109e657506109e58261202e565b5b9050919050565b3373ffffffffffffffffffffffffffffffffffffffff16600860009054906101000a900473ffffffffffffffffffffffffffffffffffffffff1673ffffffffffffffffffffffffffffffffffffffff161415610a4857600080fd5b80610a74600760009054906101000a900473ffffffffffffffffffffffffffffffffffffffff166111fb565b1015610ab5576040517f08c379a0000000000000000000000000000000000000000000000000000000008152600401610aac90613e32565b60405180910390fd5b610abf828261178f565b5080600b6000600760009054906101000a900473ffffffffffffffffffffffffffffffffffffffff1673ffffffffffffffffffffffffffffffffffffffff1673ffffffffffffffffffffffffffffffffffffffff1681526020019081526020016000206000828254610b319190614058565b925050819055507ff91179ed40193440f3f022c5755e0fc1c4b1fb78b129dd47b3c465276c070fd3600760009054906101000a900473ffffffffffffffffffffffffffffffffffffffff168383604051610b8d93929190613cba565b60405180910390a15050565b606060038054610ba890614224565b80601f0160208091040260200160405190810160405280929190818152602001828054610bd490614224565b8015610c215780601f10610bf657610100808354040283529160200191610c21565b820191906000526020600020905b815481529060010190602001808311610c0457829003601f168201915b5050505050905090565b6000610c3f610c38612098565b84846120a0565b6001905092915050565b610c5483838361226b565b80600c60008573ffffffffffffffffffffffffffffffffffffffff1673ffffffffffffffffffffffffffffffffffffffff1681526020019081526020016000206000828254610ca39190614108565b92505081905550505050565b6000600254905090565b600b6020528060005260406000206000915090505481565b6000610cde848484612270565b6000600160008673ffffffffffffffffffffffffffffffffffffffff1673ffffffffffffffffffffffffffffffffffffffff1681526020019081526020016000206000610d29612098565b73ffffffffffffffffffffffffffffffffffffffff1673ffffffffffffffffffffffffffffffffffffffff16815260200190815260200160002054905082811015610da9576040517f08c379a0000000000000000000000000000000000000000000000000000000008152600401610da090613e72565b60405180910390fd5b610dbd85610db5612098565b8584036120a0565b60019150509392505050565b600060056000838152602001908152602001600020600101549050919050565b7f04c6a47ae7910ef8b295215a97e8495a9eaf57b7b05bfd8bf951edb3fd4a16a381565b610e1682610dc9565b610e2781610e22612098565b6124f1565b610e31838361258e565b505050565b610e3e612098565b73ffffffffffffffffffffffffffffffffffffffff16610e5c611563565b73ffffffffffffffffffffffffffffffffffffffff1614610eb2576040517f08c379a0000000000000000000000000000000000000000000000000000000008152600401610ea990613e92565b60405180910390fd5b80600860006101000a81548173ffffffffffffffffffffffffffffffffffffffff021916908373ffffffffffffffffffffffffffffffffffffffff16021790555050565b6301406f4081565b60006012905090565b601281565b600c6020528060005260406000206000915090505481565b610f2c612098565b73ffffffffffffffffffffffffffffffffffffffff168173ffffffffffffffffffffffffffffffffffffffff1614610f99576040517f08c379a0000000000000000000000000000000000000000000000000000000008152600401610f9090613f32565b60405180910390fd5b610fa3828261266f565b5050565b6000611049610fb4612098565b848460016000610fc2612098565b73ffffffffffffffffffffffffffffffffffffffff1673ffffffffffffffffffffffffffffffffffffffff16815260200190815260200160002060008873ffffffffffffffffffffffffffffffffffffffff1673ffffffffffffffffffffffffffffffffffffffff168152602001908152602001600020546110449190614058565b6120a0565b6001905092915050565b60006012905090565b600760159054906101000a900460ff1681565b600080600a6000600860009054906101000a900473ffffffffffffffffffffffffffffffffffffffff1673ffffffffffffffffffffffffffffffffffffffff1673ffffffffffffffffffffffffffffffffffffffff168152602001908152602001600020604051806040016040529081600082015481526020016001820154815250509050806000015191505090565b611107612098565b73ffffffffffffffffffffffffffffffffffffffff16611125611563565b73ffffffffffffffffffffffffffffffffffffffff161461117b576040517f08c379a000000000000000000000000000000000000000000000000000000000815260040161117290613e92565b60405180910390fd5b6001600760146101000a81548160ff021916908315150217905550565b600860009054906101000a900473ffffffffffffffffffffffffffffffffffffffff1681565b60606040518060400160405280600a81526020017f5469747573546f6b656e00000000000000000000000000000000000000000000815250905090565b60008060008373ffffffffffffffffffffffffffffffffffffffff1673ffffffffffffffffffffffffffffffffffffffff168152602001908152602001600020549050919050565b61124b612098565b73ffffffffffffffffffffffffffffffffffffffff16611269611563565b73ffffffffffffffffffffffffffffffffffffffff16146112bf576040517f08c379a00000000000000000000000000000000000000000000000000000000081526004016112b690613e92565b60405180910390fd5b6112c96000612751565b565b6112d3612098565b73ffffffffffffffffffffffffffffffffffffffff166112f1611563565b73ffffffffffffffffffffffffffffffffffffffff1614611347576040517f08c379a000000000000000000000000000000000000000000000000000000000815260040161133e90613e92565b60405180910390fd5b60008251141561135657600080fd5b805182511461136457600080fd5b60005b82518110156115215760008382815181106113ab577f4e487b7100000000000000000000000000000000000000000000000000000000600052603260045260246000fd5b6020026020010151905060008383815181106113f0577f4e487b7100000000000000000000000000000000000000000000000000000000600052603260045260246000fd5b60200260200101519050611404828261178f565b5080600d60008473ffffffffffffffffffffffffffffffffffffffff1673ffffffffffffffffffffffffffffffffffffffff16815260200190815260200160002060008282546114549190614058565b9250508190555080600b6000600760009054906101000a900473ffffffffffffffffffffffffffffffffffffffff1673ffffffffffffffffffffffffffffffffffffffff1673ffffffffffffffffffffffffffffffffffffffff16815260200190815260200160002060008282546114cc9190614058565b925050819055507f2a2f3a6f457f222229acc6b14376a5d3f4344fae935675150a096e2f1056bd988282604051611504929190613cf1565b60405180910390a15050808061151990614256565b915050611367565b505050565b60606040518060400160405280600381526020017f5454540000000000000000000000000000000000000000000000000000000000815250905090565b6000600660009054906101000a900473ffffffffffffffffffffffffffffffffffffffff16905090565b60006005600084815260200190815260200160002060000160008373ffffffffffffffffffffffffffffffffffffffff1673ffffffffffffffffffffffffffffffffffffffff16815260200190815260200160002060009054906101000a900460ff16905092915050565b60606004805461160790614224565b80601f016020809104026020016040519081016040528092919081815260200182805461163390614224565b80156116805780601f1061165557610100808354040283529160200191611680565b820191906000526020600020905b81548152906001019060200180831161166357829003601f168201915b5050505050905090565b600760149054906101000a900460ff1681565b6000801b81565b600080600160006116b3612098565b73ffffffffffffffffffffffffffffffffffffffff1673ffffffffffffffffffffffffffffffffffffffff16815260200190815260200160002060008573ffffffffffffffffffffffffffffffffffffffff1673ffffffffffffffffffffffffffffffffffffffff16815260200190815260200160002054905082811015611770576040517f08c379a000000000000000000000000000000000000000000000000000000000815260040161176790613f12565b60405180910390fd5b61178461177b612098565b858584036120a0565b600191505092915050565b60006117a361179c612098565b8484612270565b6001905092915050565b6040518060400160405280600381526020017f545454000000000000000000000000000000000000000000000000000000000081525081565b600080600a6000600860009054906101000a900473ffffffffffffffffffffffffffffffffffffffff1673ffffffffffffffffffffffffffffffffffffffff1673ffffffffffffffffffffffffffffffffffffffff1681526020019081526020016000206040518060400160405290816000820154815260200160018201548152505090508060200151816000015161187f9190614108565b91505090565b600080600a6000600860009054906101000a900473ffffffffffffffffffffffffffffffffffffffff1673ffffffffffffffffffffffffffffffffffffffff1673ffffffffffffffffffffffffffffffffffffffff168152602001908152602001600020604051806040016040529081600082015481526020016001820154815250509050806020015191505090565b600760009054906101000a900473ffffffffffffffffffffffffffffffffffffffff1681565b600d6020528060005260406000206000915090505481565b7ffdf81848136595c31bb5f76217767372bc4bf906663038eb38381131ea27ecba81565b61198082610dc9565b6119918161198c612098565b6124f1565b61199b838361266f565b505050565b6000600160008473ffffffffffffffffffffffffffffffffffffffff1673ffffffffffffffffffffffffffffffffffffffff16815260200190815260200160002060008373ffffffffffffffffffffffffffffffffffffffff1673ffffffffffffffffffffffffffffffffffffffff16815260200190815260200160002054905092915050565b611a2f612098565b73ffffffffffffffffffffffffffffffffffffffff16611a4d611563565b73ffffffffffffffffffffffffffffffffffffffff1614611aa3576040517f08c379a0000000000000000000000000000000000000000000000000000000008152600401611a9a90613e92565b60405180910390fd5b600760159054906101000a900460ff16611b4e57611abf6131ce565b82816000018181525050620f424081602001818152505080600a60008473ffffffffffffffffffffffffffffffffffffffff1673ffffffffffffffffffffffffffffffffffffffff16815260200190815260200160002060008201518160000155602082015181600101559050506001600760156101000a81548160ff02191690831515021790555050611b59565b611b5782612817565b505b5050565b6040518060400160405280600a81526020017f5469747573546f6b656e0000000000000000000000000000000000000000000081525081565b7ffdf81848136595c31bb5f76217767372bc4bf906663038eb38381131ea27ecba611bc881611bc3612098565b6124f1565b611bd2838361287d565b505050565b611bdf612098565b73ffffffffffffffffffffffffffffffffffffffff16611bfd611563565b73ffffffffffffffffffffffffffffffffffffffff1614611c53576040517f08c379a0000000000000000000000000000000000000000000000000000000008152600401611c4a90613e92565b60405180910390fd5b600073ffffffffffffffffffffffffffffffffffffffff168173ffffffffffffffffffffffffffffffffffffffff161415611cc3576040517f08c379a0000000000000000000000000000000000000000000000000000000008152600401611cba90613dd2565b60405180910390fd5b611ccc81612751565b50565b600760149054906101000a900460ff16611ced57611ceb6129dd565b505b600760149054906101000a900460ff16611d92573373ffffffffffffffffffffffffffffffffffffffff16600860009054906101000a900473ffffffffffffffffffffffffffffffffffffffff1673ffffffffffffffffffffffffffffffffffffffff1614611d91576040517f08c379a0000000000000000000000000000000000000000000000000000000008152600401611d8890613e12565b60405180910390fd5b5b611d9a612098565b73ffffffffffffffffffffffffffffffffffffffff16611db8611563565b73ffffffffffffffffffffffffffffffffffffffff1614611e0e576040517f08c379a0000000000000000000000000000000000000000000000000000000008152600401611e0590613e92565b60405180910390fd5b6000670de0b6b3a764000090506000600a60003373ffffffffffffffffffffffffffffffffffffffff1673ffffffffffffffffffffffffffffffffffffffff168152602001908152602001600020905082611e8a600860009054906101000a900473ffffffffffffffffffffffffffffffffffffffff166111fb565b1015611e9557600080fd5b8181600101548260000154611eaa9190614108565b611eb491906140ae565b83611ee0600860009054906101000a900473ffffffffffffffffffffffffffffffffffffffff166111fb565b611eea9190614108565b1015611ef557600080fd5b611eff848461178f565b5082600b6000600760009054906101000a900473ffffffffffffffffffffffffffffffffffffffff1673ffffffffffffffffffffffffffffffffffffffff1673ffffffffffffffffffffffffffffffffffffffff1681526020019081526020016000206000828254611f719190614058565b925050819055507ff91179ed40193440f3f022c5755e0fc1c4b1fb78b129dd47b3c465276c070fd3600760009054906101000a900473ffffffffffffffffffffffffffffffffffffffff168585604051611fcd93929190613cba565b60405180910390a150505050565b7f04c6a47ae7910ef8b295215a97e8495a9eaf57b7b05bfd8bf951edb3fd4a16a361200d81612008612098565b6124f1565b6120178383612cf8565b505050565b6000612027826111fb565b9050919050565b60007f01ffc9a7000000000000000000000000000000000000000000000000000000007bffffffffffffffffffffffffffffffffffffffffffffffffffffffff1916827bffffffffffffffffffffffffffffffffffffffffffffffffffffffff1916149050919050565b600033905090565b600073ffffffffffffffffffffffffffffffffffffffff168373ffffffffffffffffffffffffffffffffffffffff161415612110576040517f08c379a000000000000000000000000000000000000000000000000000000000815260040161210790613ef2565b60405180910390fd5b600073ffffffffffffffffffffffffffffffffffffffff168273ffffffffffffffffffffffffffffffffffffffff161415612180576040517f08c379a000000000000000000000000000000000000000000000000000000000815260040161217790613df2565b60405180910390fd5b80600160008573ffffffffffffffffffffffffffffffffffffffff1673ffffffffffffffffffffffffffffffffffffffff16815260200190815260200160002060008473ffffffffffffffffffffffffffffffffffffffff1673ffffffffffffffffffffffffffffffffffffffff168152602001908152602001600020819055508173ffffffffffffffffffffffffffffffffffffffff168373ffffffffffffffffffffffffffffffffffffffff167f8c5be1e5ebec7d5bd14f71427d1e84f3dd0314c0f7b2291e5b200ac8c7c3b9258360405161225e9190613f72565b60405180910390a3505050565b505050565b600073ffffffffffffffffffffffffffffffffffffffff168373ffffffffffffffffffffffffffffffffffffffff1614156122e0576040517f08c379a00000000000000000000000000000000000000000000000000000000081526004016122d790613ed2565b60405180910390fd5b600073ffffffffffffffffffffffffffffffffffffffff168273ffffffffffffffffffffffffffffffffffffffff161415612350576040517f08c379a000000000000000000000000000000000000000000000000000000000815260040161234790613d92565b60405180910390fd5b61235b83838361226b565b60008060008573ffffffffffffffffffffffffffffffffffffffff1673ffffffffffffffffffffffffffffffffffffffff168152602001908152602001600020549050818110156123e1576040517f08c379a00000000000000000000000000000000000000000000000000000000081526004016123d890613e52565b60405180910390fd5b8181036000808673ffffffffffffffffffffffffffffffffffffffff1673ffffffffffffffffffffffffffffffffffffffff16815260200190815260200160002081905550816000808573ffffffffffffffffffffffffffffffffffffffff1673ffffffffffffffffffffffffffffffffffffffff16815260200190815260200160002060008282546124749190614058565b925050819055508273ffffffffffffffffffffffffffffffffffffffff168473ffffffffffffffffffffffffffffffffffffffff167fddf252ad1be2c89b69c2b068fc378daa952ba7f163c4a11628f55a4df523b3ef846040516124d89190613f72565b60405180910390a36124eb848484612ecf565b50505050565b6124fb828261158d565b61258a576125208173ffffffffffffffffffffffffffffffffffffffff166014612ed4565b61252e8360001c6020612ed4565b60405160200161253f929190613c65565b6040516020818303038152906040526040517f08c379a00000000000000000000000000000000000000000000000000000000081526004016125819190613d50565b60405180910390fd5b5050565b612598828261158d565b61266b5760016005600084815260200190815260200160002060000160008373ffffffffffffffffffffffffffffffffffffffff1673ffffffffffffffffffffffffffffffffffffffff16815260200190815260200160002060006101000a81548160ff021916908315150217905550612610612098565b73ffffffffffffffffffffffffffffffffffffffff168173ffffffffffffffffffffffffffffffffffffffff16837f2f8788117e7eff1d82e926ec794901d17c78024a50270940304540a733656f0d60405160405180910390a45b5050565b612679828261158d565b1561274d5760006005600084815260200190815260200160002060000160008373ffffffffffffffffffffffffffffffffffffffff1673ffffffffffffffffffffffffffffffffffffffff16815260200190815260200160002060006101000a81548160ff0219169083151502179055506126f2612098565b73ffffffffffffffffffffffffffffffffffffffff168173ffffffffffffffffffffffffffffffffffffffff16837ff6391f5c32d9c69d2a47ea670b442974b53935d1edc7fd64eb21e047a839171b60405160405180910390a45b5050565b6000600660009054906101000a900473ffffffffffffffffffffffffffffffffffffffff16905081600660006101000a81548173ffffffffffffffffffffffffffffffffffffffff021916908373ffffffffffffffffffffffffffffffffffffffff1602179055508173ffffffffffffffffffffffffffffffffffffffff168173ffffffffffffffffffffffffffffffffffffffff167f8be0079c531659141344cd1fd0a4f28419497f9722a3daafe3b4186f6b6457e060405160405180910390a35050565b600080600a60003373ffffffffffffffffffffffffffffffffffffffff1673ffffffffffffffffffffffffffffffffffffffff168152602001908152602001600020905082816000015461286b9190614058565b81600001819055506001915050919050565b600073ffffffffffffffffffffffffffffffffffffffff168273ffffffffffffffffffffffffffffffffffffffff1614156128ed576040517f08c379a00000000000000000000000000000000000000000000000000000000081526004016128e490613f52565b60405180910390fd5b6128f96000838361226b565b806002600082825461290b9190614058565b92505081905550806000808473ffffffffffffffffffffffffffffffffffffffff1673ffffffffffffffffffffffffffffffffffffffff16815260200190815260200160002060008282546129609190614058565b925050819055508173ffffffffffffffffffffffffffffffffffffffff16600073ffffffffffffffffffffffffffffffffffffffff167fddf252ad1be2c89b69c2b068fc378daa952ba7f163c4a11628f55a4df523b3ef836040516129c59190613f72565b60405180910390a36129d960008383612ecf565b5050565b600080600a6000600860009054906101000a900473ffffffffffffffffffffffffffffffffffffffff1673ffffffffffffffffffffffffffffffffffffffff1673ffffffffffffffffffffffffffffffffffffffff16815260200190815260200160002090504262278d00600954612a559190614058565b11158015612a72575042624f1a00600954612a709190614058565b115b15612a8857622dc6c08160010181905550612cf0565b42624f1a00600954612a9a9190614058565b11158015612ab75750426276a700600954612ab59190614058565b115b15612acd57624c4b408160010181905550612cef565b426276a700600954612adf9190614058565b11158015612afc575042629e3400600954612afa9190614058565b115b15612b1257626acfc08160010181905550612cee565b42629e3400600954612b249190614058565b11158015612b4157504262c5c100600954612b3f9190614058565b115b15612b5757628954408160010181905550612ced565b4262c5c100600954612b699190614058565b11158015612b8657504262ed4e00600954612b849190614058565b115b15612b9c5762a7d8c08160010181905550612cec565b4262ed4e00600954612bae9190614058565b11158015612bcc575042630114db00600954612bca9190614058565b115b15612be25762c65d408160010181905550612ceb565b42630114db00600954612bf59190614058565b11158015612c1357504263013c6800600954612c119190614058565b115b15612c295762e4e1c08160010181905550612cea565b4263013c6800600954612c3c9190614058565b11158015612c5a575042630163f500600954612c589190614058565b115b15612c715763010366408160010181905550612ce9565b42630163f500600954612c849190614058565b11158015612ca257504263018b8200600954612ca09190614058565b115b15612cb957630121eac08160010181905550612ce8565b4263018b8200600954612ccc9190614058565b11612ce7576301406f408160010181905550612ce66110ff565b5b5b5b5b5b5b5b5b5b5b600191505090565b600073ffffffffffffffffffffffffffffffffffffffff168273ffffffffffffffffffffffffffffffffffffffff161415612d68576040517f08c379a0000000000000000000000000000000000000000000000000000000008152600401612d5f90613eb2565b60405180910390fd5b612d748260008361226b565b60008060008473ffffffffffffffffffffffffffffffffffffffff1673ffffffffffffffffffffffffffffffffffffffff16815260200190815260200160002054905081811015612dfa576040517f08c379a0000000000000000000000000000000000000000000000000000000008152600401612df190613db2565b60405180910390fd5b8181036000808573ffffffffffffffffffffffffffffffffffffffff1673ffffffffffffffffffffffffffffffffffffffff168152602001908152602001600020819055508160026000828254612e519190614108565b92505081905550600073ffffffffffffffffffffffffffffffffffffffff168373ffffffffffffffffffffffffffffffffffffffff167fddf252ad1be2c89b69c2b068fc378daa952ba7f163c4a11628f55a4df523b3ef84604051612eb69190613f72565b60405180910390a3612eca83600084612ecf565b505050565b505050565b606060006002836002612ee791906140ae565b612ef19190614058565b67ffffffffffffffff811115612f30577f4e487b7100000000000000000000000000000000000000000000000000000000600052604160045260246000fd5b6040519080825280601f01601f191660200182016040528015612f625781602001600182028036833780820191505090505b5090507f300000000000000000000000000000000000000000000000000000000000000081600081518110612fc0577f4e487b7100000000000000000000000000000000000000000000000000000000600052603260045260246000fd5b60200101907effffffffffffffffffffffffffffffffffffffffffffffffffffffffffffff1916908160001a9053507f78000000000000000000000000000000000000000000000000000000000000008160018151811061304a577f4e487b7100000000000000000000000000000000000000000000000000000000600052603260045260246000fd5b60200101907effffffffffffffffffffffffffffffffffffffffffffffffffffffffffffff1916908160001a9053506000600184600261308a91906140ae565b6130949190614058565b90505b6001811115613180577f3031323334353637383961626364656600000000000000000000000000000000600f8616601081106130fc577f4e487b7100000000000000000000000000000000000000000000000000000000600052603260045260246000fd5b1a60f81b828281518110613139577f4e487b7100000000000000000000000000000000000000000000000000000000600052603260045260246000fd5b60200101907effffffffffffffffffffffffffffffffffffffffffffffffffffffffffffff1916908160001a905350600485901c945080613179906141fa565b9050613097565b50600084146131c4576040517f08c379a00000000000000000000000000000000000000000000000000000000081526004016131bb90613d72565b60405180910390fd5b8091505092915050565b604051806040016040528060008152602001600081525090565b60006131fb6131f684613fd9565b613fa8565b9050808382526020820190508285602086028201111561321a57600080fd5b60005b8581101561324a578161323088826132c0565b84526020840193506020830192505060018101905061321d565b5050509392505050565b600061326761326284614005565b613fa8565b9050808382526020820190508285602086028201111561328657600080fd5b60005b858110156132b6578161329c8882613353565b845260208401935060208301925050600181019050613289565b5050509392505050565b6000813590506132cf8161433d565b92915050565b600082601f8301126132e657600080fd5b81356132f68482602086016131e8565b91505092915050565b600082601f83011261331057600080fd5b8135613320848260208601613254565b91505092915050565b60008135905061333881614354565b92915050565b60008135905061334d8161436b565b92915050565b60008135905061336281614382565b92915050565b60006020828403121561337a57600080fd5b6000613388848285016132c0565b91505092915050565b600080604083850312156133a457600080fd5b60006133b2858286016132c0565b92505060206133c3858286016132c0565b9150509250929050565b6000806000606084860312156133e257600080fd5b60006133f0868287016132c0565b9350506020613401868287016132c0565b925050604061341286828701613353565b9150509250925092565b6000806040838503121561342f57600080fd5b600061343d858286016132c0565b925050602061344e85828601613353565b9150509250929050565b6000806040838503121561346b57600080fd5b600083013567ffffffffffffffff81111561348557600080fd5b613491858286016132d5565b925050602083013567ffffffffffffffff8111156134ae57600080fd5b6134ba858286016132ff565b9150509250929050565b6000602082840312156134d657600080fd5b60006134e484828501613329565b91505092915050565b6000806040838503121561350057600080fd5b600061350e85828601613329565b925050602061351f858286016132c0565b9150509250929050565b60006020828403121561353b57600080fd5b60006135498482850161333e565b91505092915050565b6000806040838503121561356557600080fd5b600061357385828601613353565b9250506020613584858286016132c0565b9150509250929050565b6135978161413c565b82525050565b6135a68161414e565b82525050565b6135b58161415a565b82525050565b60006135c682614031565b6135d0818561403c565b93506135e08185602086016141c7565b6135e98161432c565b840191505092915050565b60006135ff82614031565b613609818561404d565b93506136198185602086016141c7565b80840191505092915050565b600061363260208361403c565b91507f537472696e67733a20686578206c656e67746820696e73756666696369656e746000830152602082019050919050565b600061367260238361403c565b91507f45524332303a207472616e7366657220746f20746865207a65726f206164647260008301527f65737300000000000000000000000000000000000000000000000000000000006020830152604082019050919050565b60006136d860228361403c565b91507f45524332303a206275726e20616d6f756e7420657863656564732062616c616e60008301527f63650000000000000000000000000000000000000000000000000000000000006020830152604082019050919050565b600061373e60268361403c565b91507f4f776e61626c653a206e6577206f776e657220697320746865207a65726f206160008301527f64647265737300000000000000000000000000000000000000000000000000006020830152604082019050919050565b60006137a460228361403c565b91507f45524332303a20617070726f766520746f20746865207a65726f20616464726560008301527f73730000000000000000000000000000000000000000000000000000000000006020830152604082019050919050565b600061380a601a8361403c565b91507f596f7520646f206e6f742068617665207065726d697373696f6e0000000000006000830152602082019050919050565b600061384a600e8361403c565b91507f4e6f7420456e6f756768204552540000000000000000000000000000000000006000830152602082019050919050565b600061388a60268361403c565b91507f45524332303a207472616e7366657220616d6f756e742065786365656473206260008301527f616c616e636500000000000000000000000000000000000000000000000000006020830152604082019050919050565b60006138f060288361403c565b91507f45524332303a207472616e7366657220616d6f756e742065786365656473206160008301527f6c6c6f77616e63650000000000000000000000000000000000000000000000006020830152604082019050919050565b600061395660208361403c565b91507f4f776e61626c653a2063616c6c6572206973206e6f7420746865206f776e65726000830152602082019050919050565b600061399660218361403c565b91507f45524332303a206275726e2066726f6d20746865207a65726f2061646472657360008301527f73000000000000000000000000000000000000000000000000000000000000006020830152604082019050919050565b60006139fc60258361403c565b91507f45524332303a207472616e736665722066726f6d20746865207a65726f20616460008301527f64726573730000000000000000000000000000000000000000000000000000006020830152604082019050919050565b6000613a6260248361403c565b91507f45524332303a20617070726f76652066726f6d20746865207a65726f2061646460008301527f72657373000000000000000000000000000000000000000000000000000000006020830152604082019050919050565b6000613ac860178361404d565b91507f416363657373436f6e74726f6c3a206163636f756e74200000000000000000006000830152601782019050919050565b6000613b0860258361403c565b91507f45524332303a2064656372656173656420616c6c6f77616e63652062656c6f7760008301527f207a65726f0000000000000000000000000000000000000000000000000000006020830152604082019050919050565b6000613b6e60118361404d565b91507f206973206d697373696e6720726f6c65200000000000000000000000000000006000830152601182019050919050565b6000613bae602f8361403c565b91507f416363657373436f6e74726f6c3a2063616e206f6e6c792072656e6f756e636560008301527f20726f6c657320666f722073656c6600000000000000000000000000000000006020830152604082019050919050565b6000613c14601f8361403c565b91507f45524332303a206d696e7420746f20746865207a65726f2061646472657373006000830152602082019050919050565b613c50816141b0565b82525050565b613c5f816141ba565b82525050565b6000613c7082613abb565b9150613c7c82856135f4565b9150613c8782613b61565b9150613c9382846135f4565b91508190509392505050565b6000602082019050613cb4600083018461358e565b92915050565b6000606082019050613ccf600083018661358e565b613cdc602083018561358e565b613ce96040830184613c47565b949350505050565b6000604082019050613d06600083018561358e565b613d136020830184613c47565b9392505050565b6000602082019050613d2f600083018461359d565b92915050565b6000602082019050613d4a60008301846135ac565b92915050565b60006020820190508181036000830152613d6a81846135bb565b905092915050565b60006020820190508181036000830152613d8b81613625565b9050919050565b60006020820190508181036000830152613dab81613665565b9050919050565b60006020820190508181036000830152613dcb816136cb565b9050919050565b60006020820190508181036000830152613deb81613731565b9050919050565b60006020820190508181036000830152613e0b81613797565b9050919050565b60006020820190508181036000830152613e2b816137fd565b9050919050565b60006020820190508181036000830152613e4b8161383d565b9050919050565b60006020820190508181036000830152613e6b8161387d565b9050919050565b60006020820190508181036000830152613e8b816138e3565b9050919050565b60006020820190508181036000830152613eab81613949565b9050919050565b60006020820190508181036000830152613ecb81613989565b9050919050565b60006020820190508181036000830152613eeb816139ef565b9050919050565b60006020820190508181036000830152613f0b81613a55565b9050919050565b60006020820190508181036000830152613f2b81613afb565b9050919050565b60006020820190508181036000830152613f4b81613ba1565b9050919050565b60006020820190508181036000830152613f6b81613c07565b9050919050565b6000602082019050613f876000830184613c47565b92915050565b6000602082019050613fa26000830184613c56565b92915050565b6000604051905081810181811067ffffffffffffffff82111715613fcf57613fce6142fd565b5b8060405250919050565b600067ffffffffffffffff821115613ff457613ff36142fd565b5b602082029050602081019050919050565b600067ffffffffffffffff8211156140205761401f6142fd565b5b602082029050602081019050919050565b600081519050919050565b600082825260208201905092915050565b600081905092915050565b6000614063826141b0565b915061406e836141b0565b9250827fffffffffffffffffffffffffffffffffffffffffffffffffffffffffffffffff038211156140a3576140a261429f565b5b828201905092915050565b60006140b9826141b0565b91506140c4836141b0565b9250817fffffffffffffffffffffffffffffffffffffffffffffffffffffffffffffffff04831182151516156140fd576140fc61429f565b5b828202905092915050565b6000614113826141b0565b915061411e836141b0565b9250828210156141315761413061429f565b5b828203905092915050565b600061414782614190565b9050919050565b60008115159050919050565b6000819050919050565b60007fffffffff0000000000000000000000000000000000000000000000000000000082169050919050565b600073ffffffffffffffffffffffffffffffffffffffff82169050919050565b6000819050919050565b600060ff82169050919050565b60005b838110156141e55780820151818401526020810190506141ca565b838111156141f4576000848401525b50505050565b6000614205826141b0565b915060008214156142195761421861429f565b5b600182039050919050565b6000600282049050600182168061423c57607f821691505b602082108114156142505761424f6142ce565b5b50919050565b6000614261826141b0565b91507fffffffffffffffffffffffffffffffffffffffffffffffffffffffffffffffff8214156142945761429361429f565b5b600182019050919050565b7f4e487b7100000000000000000000000000000000000000000000000000000000600052601160045260246000fd5b7f4e487b7100000000000000000000000000000000000000000000000000000000600052602260045260246000fd5b7f4e487b7100000000000000000000000000000000000000000000000000000000600052604160045260246000fd5b6000601f19601f8301169050919050565b6143468161413c565b811461435157600080fd5b50565b61435d8161415a565b811461436857600080fd5b50565b61437481614164565b811461437f57600080fd5b50565b61438b816141b0565b811461439657600080fd5b5056fea26469706673582212206aa55114daa8bcc5528b7b5c42e8e4e3ac7a9266c869412e0cbdf8305fc706b464736f6c63430008000033",
  "immutableReferences": {},
  "source": "// SPDX-License-Identifier: MIT\r\npragma solidity ^0.8.0;\r\n\r\nimport \"@openzeppelin/contracts/token/ERC20/ERC20.sol\";\r\nimport \"@openzeppelin/contracts/access/AccessControl.sol\";\r\nimport \"@openzeppelin/contracts/access/Ownable.sol\";\r\nimport \"@openzeppelin/contracts/utils/math/SafeMath.sol\";\r\nimport \"@openzeppelin/contracts/token/ERC20/utils/TokenTimelock.sol\";\r\n\r\ncontract TitusToken is ERC20, AccessControl, Ownable {\r\n    using SafeMath for uint256;\r\n\r\n    /// @notice  \r\n    string public constant _token = \"TitusToken\";\r\n\r\n    /// @notice  \r\n    string public constant _symbol = \"TTT\";\r\n\r\n    /// @notice \r\n    uint8 public constant _decimals = 18;\r\n\r\n    /// @notice   \r\n    uint256 public constant INITIAL_SUPPLY = 21000000;\r\n    \r\n    /// @notice  \r\n    address public user_wallet = payable(msg.sender);\r\n\r\n    /// @notice   \r\n    bytes32 public constant MINTER_ROLE = keccak256(\"MINT\");\r\n    bytes32 public constant BURNER_ROLE = keccak256(\"BURN\");\r\n\r\n    //  \r\n    struct lockAllowance {\r\n        uint256 total;\r\n        uint256 allowance;\r\n        // uint lockStage;\r\n    }\r\n\r\n    // released  \r\n    bool public released = false;\r\n    //    \r\n    bool public lockRegist = false;\r\n    //   \r\n    address public lockOwner;\r\n    //    \r\n    uint256 firstListingDate;\r\n\r\n    //     \r\n    mapping(address => lockAllowance) lockAllowances;\r\n\r\n    // \r\n    mapping(address => uint256) public sendAmount; //       \r\n    event SendToken(address from, address to, uint256 amount);\r\n\r\n    // \r\n    mapping(address => uint256) public cancelAmount; //   \r\n\r\n    // \r\n    mapping(address => uint256) public airDropHistory; //    \r\n    event AirDrop(address _receiveWallet, uint256 amount);\r\n\r\n\r\n    //   \r\n    modifier canTransfer() {\r\n        if(!released) {\r\n            require(lockOwner == msg.sender, \"You do not have permission\");\r\n        }\r\n        _;\r\n    }\r\n\r\n    //    \r\n    modifier investorChecks() {\r\n        if(!released){\r\n            updateLockAllowances();\r\n        }\r\n        _;\r\n    }\r\n\r\n    //  1  constructor\r\n    constructor() ERC20(\"TitusToken\", \"TTT\") {\r\n        address owners = msg.sender; //  \r\n        lockOwner = payable(msg.sender);\r\n        _mint(owners, INITIAL_SUPPLY * 10 ** (uint(decimals()))); // 2100  \r\n\r\n        _setupRole(MINTER_ROLE, owners); //   \r\n        _setupRole(BURNER_ROLE, owners); //   \r\n        _setupRole(DEFAULT_ADMIN_ROLE, msg.sender); // grantrole    \r\n\r\n        firstListingDate = block.timestamp; //    \r\n        setReleaser(owners); //   \r\n        addToLock(INITIAL_SUPPLY, owners); //  \r\n    }\r\n\r\n    //  \r\n    /**\r\n     *   @dev   \r\n     *   @return    \r\n     */\r\n    function tokenName() public pure returns(string memory) {\r\n        return _token;\r\n    }\r\n\r\n    //    \r\n\r\n    //  \r\n    /**\r\n     *   @dev   \r\n     *   @return    \r\n     */    \r\n    function tokenSymbol() public pure returns(string memory){\r\n        return _symbol;\r\n    }\r\n\r\n    //  decimals\r\n    /**\r\n     *   @dev    \r\n     *   @return  decimals \r\n     */\r\n    function tokenDecimals() public pure returns(uint8) {\r\n        return _decimals;\r\n    }\r\n\r\n    //  \r\n    /**\r\n     *   @dev     \r\n     *   @param wallet  \r\n     *   @return    \r\n     */\r\n    function getBalance(address wallet) public view returns(uint256){\r\n        return balanceOf(wallet);\r\n    }\r\n\r\n    //   \r\n\r\n    //   -   \r\n    /**\r\n     *   @dev      .\r\n     *   @param _to   \r\n     *   @param _amount    \r\n     */\r\n    function sendTokens(address _to, uint256 _amount) public {\r\n        require(lockOwner != msg.sender);\r\n        require(balanceOf(user_wallet) >= _amount, \"Not Enough ERT\");\r\n        transfer(_to, _amount);\r\n        sendAmount[user_wallet] += _amount;\r\n        emit SendToken(user_wallet, _to, _amount);\r\n    }    \r\n\r\n    //   -  \r\n    /**\r\n     *   @dev     .\r\n     *   @param _to   \r\n     *   @param _amount    \r\n     */\r\n    function sendToken_admin(address _to, uint256 _amount) public investorChecks canTransfer onlyOwner {\r\n        uint256 multi = 10 ** 18;\r\n        lockAllowance storage lock = lockAllowances[msg.sender];\r\n        require(balanceOf(lockOwner) >= _amount);\r\n        require((balanceOf(lockOwner) - _amount) >= (lock.total - lock.allowance) * multi);\r\n        transfer(_to, _amount);\r\n        sendAmount[user_wallet] += _amount;\r\n        emit SendToken(user_wallet, _to, _amount);\r\n    }\r\n\r\n    //  \r\n    /**\r\n     *   @dev     . Role mint    \r\n     *   _mint   .\r\n     *   @param to   \r\n     *   @param _amount  \r\n     */\r\n    function tokenMint(address to, uint256 _amount) public onlyRole(MINTER_ROLE) {\r\n        _mint(to, _amount);\r\n    }\r\n\r\n    //  \r\n    /**\r\n     *   @dev     . Role burn    \r\n     *   _burn   .\r\n     *   @param from   \r\n     *   @param _amount  \r\n     */\r\n    function tokenBurn(address from, uint256 _amount) public onlyRole(BURNER_ROLE) {\r\n        _burn(from, _amount);\r\n    }\r\n\r\n    //  \r\n    /**\r\n     *   @dev          .\r\n     *   @param receivers    \r\n     *   @param values      \r\n     */\r\n    function tokenAirDrop(address[] memory receivers, uint256[] memory values) public onlyOwner {\r\n        require(receivers.length != 0);\r\n        require(receivers.length == values.length);\r\n\r\n        for(uint256 i = 0; i < receivers.length; i++) {\r\n            address receiver = receivers[i];\r\n            uint256 amount = values[i];\r\n\r\n            transfer(receiver, amount);\r\n            airDropHistory[receiver] += amount;\r\n            sendAmount[user_wallet] += amount;\r\n\r\n            emit AirDrop(receiver, amount);\r\n        }\r\n    }\r\n\r\n    //  \r\n    /**\r\n     *   @dev    .\r\n     *   @param _from   \r\n     *   @param _to   \r\n     *   @param _amount   \r\n     */\r\n    function tokenPause(address _from, address _to, uint256 _amount) public {\r\n        _beforeTokenTransfer(_from, _to, _amount);\r\n        cancelAmount[_from] -= _amount;\r\n    }    \r\n\r\n    //   \r\n\r\n    /**\r\n     *  @dev   \r\n     */\r\n    function Total_Lock_Amount() public view returns(uint256) {\r\n        lockAllowance memory lock = lockAllowances[lockOwner];\r\n        return lock.total;\r\n    }\r\n\r\n    /**\r\n     *  @dev   \r\n     */\r\n    function Total_holding() public view returns(uint256) {\r\n        lockAllowance memory lock = lockAllowances[lockOwner];\r\n        return lock.total - lock.allowance;\r\n    }\r\n\r\n    /**\r\n     *  @dev   \r\n     */\r\n    function Total_allowance() public view returns(uint256) {\r\n        lockAllowance memory lock = lockAllowances[lockOwner];\r\n        return lock.allowance;\r\n    }\r\n\r\n    /**\r\n     *   @dev  \r\n     */\r\n    function releaseTokenTransfer() onlyOwner public {\r\n        released = true;\r\n    }\r\n\r\n    /**\r\n     *   @dev     \r\n     */\r\n    function setReleaser(address _lockOwner) onlyOwner public {\r\n        lockOwner = _lockOwner;\r\n    }\r\n\r\n    /**\r\n     *   @dev  \r\n     */\r\n    function addToLock(uint256 _total, address _investor) public onlyOwner {\r\n        if(!lockRegist) {\r\n            lockAllowance memory lock;\r\n            lock.total = _total;\r\n            lock.allowance = 1000000;\r\n            lockAllowances[_investor] = lock;\r\n            lockRegist = true;\r\n        }else{\r\n            updateLockTotal(_total);\r\n        }\r\n    }\r\n\r\n    /**\r\n     *   @dev   \r\n     */    \r\n     function updateLockTotal(uint256 _total) internal returns(bool) {\r\n         lockAllowance storage lock = lockAllowances[msg.sender];\r\n         lock.total = lock.total + _total;\r\n         return true;\r\n     }\r\n\r\n    /**\r\n     *   @dev   \r\n     */\r\n    function updateLockAllowances() internal returns(bool) {\r\n        lockAllowance storage lock = lockAllowances[lockOwner];\r\n        if(firstListingDate + 30 days <= block.timestamp && firstListingDate + 60 days > block.timestamp){\r\n                lock.allowance = 3000000;\r\n                // lock.lockStage = 1;\r\n        }else if(firstListingDate + 60 days <= block.timestamp && firstListingDate + 90 days > block.timestamp){\r\n                lock.allowance = 5000000;\r\n                // lock.lockStage = 2;\r\n        }else if(firstListingDate + 90 days <= block.timestamp && firstListingDate + 120 days > block.timestamp){\r\n                lock.allowance = 7000000;\r\n                // lock.lockStage = 3;\r\n        }else if(firstListingDate + 120 days <= block.timestamp && firstListingDate + 150 days > block.timestamp){\r\n                lock.allowance = 9000000;\r\n                // lock.lockStage = 4;\r\n        }else if(firstListingDate + 150 days <= block.timestamp && firstListingDate + 180 days > block.timestamp){\r\n                lock.allowance = 11000000;\r\n                // lock.lockStage = 5;\r\n        }else if(firstListingDate + 180 days <= block.timestamp && firstListingDate + 210 days > block.timestamp){\r\n                lock.allowance = 13000000;\r\n                // lock.lockStage = 6;\r\n        }else if(firstListingDate + 210 days <= block.timestamp && firstListingDate + 240 days > block.timestamp){\r\n                lock.allowance = 15000000;\r\n                // lock.lockStage = 7;\r\n        }else if(firstListingDate + 240 days <= block.timestamp && firstListingDate + 270 days > block.timestamp){\r\n                lock.allowance = 17000000;\r\n                // lock.lockStage = 8;\r\n        }else if(firstListingDate + 270 days <= block.timestamp && firstListingDate + 300 days > block.timestamp){\r\n                lock.allowance = 19000000;\r\n                // lock.lockStage = 10;\r\n        }else if(firstListingDate + 300 days <= block.timestamp){\r\n                lock.allowance = 21000000;\r\n                // lock.lockStage = 11;\r\n                releaseTokenTransfer(); //  \r\n        }\r\n        return true;\r\n    }\r\n}",
  "sourcePath": "C:/Users/redqo/Desktop/TitusToken/contracts/TitusToken.sol",
  "compiler": {
    "name": "solc",
    "version": "0.8.0+commit.c7dfd78e.Emscripten.clang"
  },
  "schemaVersion": "3.4.1",
  "updatedAt": "2021-08-08T14:21:45.729Z",
  "networkType": "ethereum",
  "devdoc": {
    "kind": "dev",
    "methods": {
      "Total_Lock_Amount()": {
        "details": "  "
      },
      "Total_allowance()": {
        "details": "  "
      },
      "Total_holding()": {
        "details": "  "
      },
      "addToLock(uint256,address)": {
        "details": " "
      },
      "allowance(address,address)": {
        "details": "See {IERC20-allowance}."
      },
      "approve(address,uint256)": {
        "details": "See {IERC20-approve}. Requirements: - `spender` cannot be the zero address."
      },
      "balanceOf(address)": {
        "details": "See {IERC20-balanceOf}."
      },
      "decimals()": {
        "details": "Returns the number of decimals used to get its user representation. For example, if `decimals` equals `2`, a balance of `505` tokens should be displayed to a user as `5,05` (`505 / 10 ** 2`). Tokens usually opt for a value of 18, imitating the relationship between Ether and Wei. This is the value {ERC20} uses, unless this function is overridden; NOTE: This information is only used for _display_ purposes: it in no way affects any of the arithmetic of the contract, including {IERC20-balanceOf} and {IERC20-transfer}."
      },
      "decreaseAllowance(address,uint256)": {
        "details": "Atomically decreases the allowance granted to `spender` by the caller. This is an alternative to {approve} that can be used as a mitigation for problems described in {IERC20-approve}. Emits an {Approval} event indicating the updated allowance. Requirements: - `spender` cannot be the zero address. - `spender` must have allowance for the caller of at least `subtractedValue`."
      },
      "getBalance(address)": {
        "details": "    ",
        "params": {
          "wallet": " "
        },
        "returns": {
          "_0": "   "
        }
      },
      "getRoleAdmin(bytes32)": {
        "details": "Returns the admin role that controls `role`. See {grantRole} and {revokeRole}. To change a role's admin, use {_setRoleAdmin}."
      },
      "grantRole(bytes32,address)": {
        "details": "Grants `role` to `account`. If `account` had not been already granted `role`, emits a {RoleGranted} event. Requirements: - the caller must have ``role``'s admin role."
      },
      "hasRole(bytes32,address)": {
        "details": "Returns `true` if `account` has been granted `role`."
      },
      "increaseAllowance(address,uint256)": {
        "details": "Atomically increases the allowance granted to `spender` by the caller. This is an alternative to {approve} that can be used as a mitigation for problems described in {IERC20-approve}. Emits an {Approval} event indicating the updated allowance. Requirements: - `spender` cannot be the zero address."
      },
      "name()": {
        "details": "Returns the name of the token."
      },
      "owner()": {
        "details": "Returns the address of the current owner."
      },
      "releaseTokenTransfer()": {
        "details": " "
      },
      "renounceOwnership()": {
        "details": "Leaves the contract without owner. It will not be possible to call `onlyOwner` functions anymore. Can only be called by the current owner. NOTE: Renouncing ownership will leave the contract without an owner, thereby removing any functionality that is only available to the owner."
      },
      "renounceRole(bytes32,address)": {
        "details": "Revokes `role` from the calling account. Roles are often managed via {grantRole} and {revokeRole}: this function's purpose is to provide a mechanism for accounts to lose their privileges if they are compromised (such as when a trusted device is misplaced). If the calling account had been granted `role`, emits a {RoleRevoked} event. Requirements: - the caller must be `account`."
      },
      "revokeRole(bytes32,address)": {
        "details": "Revokes `role` from `account`. If `account` had been granted `role`, emits a {RoleRevoked} event. Requirements: - the caller must have ``role``'s admin role."
      },
      "sendToken_admin(address,uint256)": {
        "details": "    .",
        "params": {
          "_amount": "   ",
          "_to": "  "
        }
      },
      "sendTokens(address,uint256)": {
        "details": "     .",
        "params": {
          "_amount": "   ",
          "_to": "  "
        }
      },
      "setReleaser(address)": {
        "details": "    "
      },
      "supportsInterface(bytes4)": {
        "details": "See {IERC165-supportsInterface}."
      },
      "symbol()": {
        "details": "Returns the symbol of the token, usually a shorter version of the name."
      },
      "tokenAirDrop(address[],uint256[])": {
        "details": "         .",
        "params": {
          "receivers": "   ",
          "values": "     "
        }
      },
      "tokenBurn(address,uint256)": {
        "details": "    . Role burn       _burn   .",
        "params": {
          "_amount": " ",
          "from": "  "
        }
      },
      "tokenDecimals()": {
        "details": "   ",
        "returns": {
          "_0": " decimals "
        }
      },
      "tokenMint(address,uint256)": {
        "details": "    . Role mint       _mint   .",
        "params": {
          "_amount": " ",
          "to": "  "
        }
      },
      "tokenName()": {
        "details": "  ",
        "returns": {
          "_0": "   "
        }
      },
      "tokenPause(address,address,uint256)": {
        "details": "   .",
        "params": {
          "_amount": "  ",
          "_from": "  ",
          "_to": "  "
        }
      },
      "tokenSymbol()": {
        "details": "  ",
        "returns": {
          "_0": "   "
        }
      },
      "totalSupply()": {
        "details": "See {IERC20-totalSupply}."
      },
      "transfer(address,uint256)": {
        "details": "See {IERC20-transfer}. Requirements: - `recipient` cannot be the zero address. - the caller must have a balance of at least `amount`."
      },
      "transferFrom(address,address,uint256)": {
        "details": "See {IERC20-transferFrom}. Emits an {Approval} event indicating the updated allowance. This is not required by the EIP. See the note at the beginning of {ERC20}. Requirements: - `sender` and `recipient` cannot be the zero address. - `sender` must have a balance of at least `amount`. - the caller must have allowance for ``sender``'s tokens of at least `amount`."
      },
      "transferOwnership(address)": {
        "details": "Transfers ownership of the contract to a new account (`newOwner`). Can only be called by the current owner."
      }
    },
    "version": 1
  },
  "userdoc": {
    "kind": "user",
    "methods": {
      "INITIAL_SUPPLY()": {
        "notice": "  "
      },
      "MINTER_ROLE()": {
        "notice": "  "
      },
      "_decimals()": {
        "notice": ""
      },
      "_symbol()": {
        "notice": " "
      },
      "_token()": {
        "notice": " "
      },
      "user_wallet()": {
        "notice": " "
      }
    },
    "version": 1
  }
}